{
  "transactions": [
    {
      "hash": "0xbd487e0d06b1ade2a77593c82d921bd9bd1d220859a617f9fd4db04ef018c3b7",
      "transactionType": "CREATE",
      "contractName": null,
      "contractAddress": "0x53827a9B172Ee56cB5efa504384F18fCD84573e0",
      "function": null,
      "arguments": null,
      "transaction": {
        "type": "0x00",
        "from": "0xa50fc8fc0b7845b07dcd00ef6bde46e5160e3835",
        "gas": "0xc00100",
        "value": "0x0",
        "data": "0x608060405234801561001057600080fd5b506040516107ef3803806107ef83398101604081905261002f91610054565b600080546001600160a01b0319166001600160a01b0392909216919091179055610084565b60006020828403121561006657600080fd5b81516001600160a01b038116811461007d57600080fd5b9392505050565b61075c806100936000396000f3fe608060405234801561001057600080fd5b50600436106100885760003560e01c8063923cb9521161005b578063923cb952146100ff5780639459b87514610112578063d4aae0c414610127578063f3fef3a31461013a57600080fd5b806322f3e2d41461008d5780634657b36c146100aa5780635924be70146100bf57806380cee4ab146100d4575b600080fd5b61009561014d565b60405190151581526020015b60405180910390f35b6100bd6100b83660046105d0565b6101bf565b005b6100c7610213565b6040516100a191906105f4565b6002546100e7906001600160a01b031681565b6040516001600160a01b0390911681526020016100a1565b6001546100e7906001600160a01b031681565b61011a6102a8565b6040516100a19190610657565b6000546100e7906001600160a01b031681565b6100bd6101483660046106a5565b6103bd565b6000805460405163e52223bb60e01b81523060048201526001600160a01b039091169063e52223bb90602401602060405180830381865afa158015610196573d6000803e3d6000fd5b505050506040513d601f19601f820116820180604052508101906101ba91906106d1565b905090565b6000546001600160a01b031633146101f15760405163053e900f60e21b81523360048201526024015b60405180910390fd5b600080546001600160a01b0319166001600160a01b0392909216919091179055565b604080516001808252818301909252606091816020015b604080518082019091526000808252602082015281526020019060019003908161022a579050509050604051806040016040528061026d64545253525960d81b90565b6001600160d81b031916815263f3fef3a360e01b6020909101528151829060009061029a5761029a6106f3565b602002602001018190525090565b604080516002808252606080830184529260208301908036833701905050905064524f4c455360d81b816000815181106102e4576102e46106f3565b6001600160d81b03199092166020928302919091019091015261030c64545253525960d81b90565b8160018151811061031f5761031f6106f3565b60200260200101906001600160d81b03191690816001600160d81b0319168152505061036481600081518110610357576103576106f3565b6020026020010151610506565b600180546001600160a01b0319166001600160a01b0392909216919091178155815161039a9183918110610357576103576106f3565b600280546001600160a01b0319166001600160a01b039290921691909117905590565b60015460405163d09a20c560e01b81526430b236b4b760d91b60048201819052336024830152916001600160a01b03169063d09a20c590604401600060405180830381600087803b15801561041157600080fd5b505af1158015610425573d6000803e3d6000fd5b505060025460405163f3fef3a360e01b81526001600160a01b03878116600483015260248201879052909116925063f3fef3a39150604401600060405180830381600087803b15801561047757600080fd5b505af115801561048b573d6000803e3d6000fd5b505060405163a9059cbb60e01b8152336004820152602481018590526001600160a01b038616925063a9059cbb91506044016020604051808303816000875af11580156104dc573d6000803e3d6000fd5b505050506040513d601f19601f8201168201806040525081019061050091906106d1565b50505050565b60008054604051632d37002d60e21b81526001600160d81b03198416600482015282916001600160a01b03169063b4dc00b490602401602060405180830381865afa158015610559573d6000803e3d6000fd5b505050506040513d601f19601f8201168201806040525081019061057d9190610709565b90506001600160a01b0381166105b257604051635c3fa9cd60e01b81526001600160d81b0319841660048201526024016101e8565b92915050565b6001600160a01b03811681146105cd57600080fd5b50565b6000602082840312156105e257600080fd5b81356105ed816105b8565b9392505050565b602080825282518282018190526000919060409081850190868401855b8281101561064a57815180516001600160d81b03191685528601516001600160e01b031916868501529284019290850190600101610611565b5091979650505050505050565b6020808252825182820181905260009190848201906040850190845b818110156106995783516001600160d81b03191683529284019291840191600101610673565b50909695505050505050565b600080604083850312156106b857600080fd5b82356106c3816105b8565b946020939093013593505050565b6000602082840312156106e357600080fd5b815180151581146105ed57600080fd5b634e487b7160e01b600052603260045260246000fd5b60006020828403121561071b57600080fd5b81516105ed816105b856fea2646970667358221220e1841b42f454745cd03cc3c5a9b21234cdf5ca8f09164a8b7178dde05996ecd964736f6c634300080f00330000000000000000000000006d37f6eedc9ed384e56c67827001901f9af2ea5f",
        "nonce": "0x51"
      },
      "additionalContracts": [],
      "isFixedGasLimit": false
    },
    {
      "hash": "0x888804ef3c8ba6026e50fac7d5f28106dbb65bd131f9dff99654153e9de01b42",
      "transactionType": "CALL",
      "contractName": null,
      "contractAddress": "0x6d37F6eeDc9ED384E56C67827001901F9Af2EA5F",
      "function": null,
      "arguments": null,
      "transaction": {
        "type": "0x00",
        "from": "0xa50fc8fc0b7845b07dcd00ef6bde46e5160e3835",
        "to": "0x6d37f6eedc9ed384e56c67827001901f9af2ea5f",
        "gas": "0x5c958",
        "value": "0x0",
        "data": "0xc4d1f8f1000000000000000000000000000000000000000000000000000000000000000200000000000000000000000053827a9b172ee56cb5efa504384f18fcd84573e0",
        "nonce": "0x52"
      },
      "additionalContracts": [],
      "isFixedGasLimit": false
    },
    {
      "hash": "0x19a14e46208434de5cb19d6c4ca1bffb7e37378b7d44a21a9f7a8db40a810612",
      "transactionType": "CREATE",
      "contractName": "esRADT.0.8.15",
      "contractAddress": "0xDee7ED1e10F1956E23EE2df2908101B39bB6808f",
      "function": null,
      "arguments": null,
      "transaction": {
        "type": "0x00",
        "from": "0xa50fc8fc0b7845b07dcd00ef6bde46e5160e3835",
        "gas": "0x2136f8f",
        "value": "0x0",
        "data": "0x6080604052630107ac00600955600a80546001600160a01b031916737ca0b5ca80291b1feb2d45702ffe56a7a53e7a971790553480156200003f57600080fd5b506040518060400160405280600d81526020016c115cd8dc9bddd9590814905115609a1b81525060405180604001604052806006815260200165195cd490511560d21b8152508160039081620000969190620001c8565b506004620000a58282620001c8565b505050620000c2620000bc620000cd60201b60201c565b620000d1565b600160065562000294565b3390565b600580546001600160a01b038381166001600160a01b0319831681179093556040519116919082907f8be0079c531659141344cd1fd0a4f28419497f9722a3daafe3b4186f6b6457e090600090a35050565b634e487b7160e01b600052604160045260246000fd5b600181811c908216806200014e57607f821691505b6020821081036200016f57634e487b7160e01b600052602260045260246000fd5b50919050565b601f821115620001c357600081815260208120601f850160051c810160208610156200019e5750805b601f850160051c820191505b81811015620001bf57828155600101620001aa565b5050505b505050565b81516001600160401b03811115620001e457620001e462000123565b620001fc81620001f5845462000139565b8462000175565b602080601f8311600181146200023457600084156200021b5750858301515b600019600386901b1c1916600185901b178555620001bf565b600085815260208120601f198616915b82811015620002655788860151825594840194600190910190840162000244565b5085821015620002845787850151600019600388901b60f8161c191681555b5050505050600190811b01905550565b61188480620002a46000396000f3fe608060405234801561001057600080fd5b506004361061018e5760003560e01c80637313ee5a116100de578063a457c2d711610097578063dd46706411610071578063dd4670641461038a578063dd62ed3e1461039d578063e6334eea146103b0578063f2fde38b146103b857600080fd5b8063a457c2d714610351578063a9059cbb14610364578063b9a45aac1461037757600080fd5b80637313ee5a146102ce57806384d24226146102d757806385c7a7a9146102ea5780638da5cb5b1461031557806395d89b41146103265780639b19251a1461032e57600080fd5b8063313ce5671161014b5780634e71d92d116101255780634e71d92d146102825780636a760b801461028a57806370a082311461029d578063715018a6146102c657600080fd5b8063313ce5671461024b578063395093511461025a57806342966c681461026d57600080fd5b806306fdde0314610193578063095ea7b3146101b157806318160ddd146101d45780631959a002146101e657806320f203d91461023057806323b872dd14610238575b600080fd5b61019b6103cb565b6040516101a891906115db565b60405180910390f35b6101c46101bf36600461162a565b61045d565b60405190151581526020016101a8565b6002545b6040519081526020016101a8565b6102156101f4366004611654565b60086020526000908152604090208054600182015460029092015490919083565b604080519384526020840192909252908201526060016101a8565b6101d8610475565b6101c461024636600461166f565b6104dc565b604051601281526020016101a8565b6101c461026836600461162a565b610551565b61028061027b3660046116ab565b610573565b005b610280610580565b6102806102983660046116ab565b610745565b6101d86102ab366004611654565b6001600160a01b031660009081526020819052604090205490565b61028061084d565b6101d860095481565b6101d86102e5366004611654565b61085f565b600a546102fd906001600160a01b031681565b6040516001600160a01b0390911681526020016101a8565b6005546001600160a01b03166102fd565b61019b6108fc565b6101c461033c366004611654565b60076020526000908152604090205460ff1681565b6101c461035f36600461162a565b61090b565b6101c461037236600461162a565b610991565b6102806103853660046116d2565b61099f565b6102806103983660046116ab565b6109d2565b6101d86103ab366004611709565b610ab9565b6101d8610ae4565b6102806103c6366004611654565b610c99565b6060600380546103da9061173c565b80601f01602080910402602001604051908101604052809291908181526020018280546104069061173c565b80156104535780601f1061042857610100808354040283529160200191610453565b820191906000526020600020905b81548152906001019060200180831161043657829003601f168201915b5050505050905090565b60003361046b818585610d0f565b5060019392505050565b336000908152600860205260408120600101548190610495904290610e34565b3360009081526008602052604090206002015490915081106104b957600091505090565b336000908152600860205260409020600201546104d69082610e34565b91505090565b6001600160a01b03831660009081526007602052604081205460ff1661053b5760405162461bcd60e51b815260206004820152600f60248201526e139bdd081dda1a5d195b1a5cdd1959608a1b60448201526064015b60405180910390fd5b610546843384610e40565b61046b848484610eba565b60003361046b8185856105648383610ab9565b61056e919061178c565b610d0f565b61057d338261105e565b50565b61058861118d565b336000908152600860205260409020546105ce5760405162461bcd60e51b81526020600482015260076024820152661b9bc81b5a5b9d60ca1b6044820152606401610532565b336000908152600860205260408120600101546105ec904290610e34565b3360009081526008602052604081206002015491925090821061062957503360009081526008602052604081208054600290910191909155610688565b33600090815260086020526040902060028101549054610654919061064e90856111e6565b906111f2565b336000908152600860205260409020600201549091506106749083610e34565b336000908152600860205260409020600201555b336000908152600860205260409020546106a29082610e34565b336000818152600860205260409081902092835542600190930192909255600a54915163a9059cbb60e01b81526004810191909152602481018390526001600160a01b039091169063a9059cbb906044016020604051808303816000875af1158015610712573d6000803e3d6000fd5b505050506040513d601f19601f8201168201806040525081019061073691906117a4565b5050506107436001600655565b565b61074d61118d565b6040516370a0823160e01b8152336004820152819030906370a0823190602401602060405180830381865afa15801561078a573d6000803e3d6000fd5b505050506040513d601f19601f820116820180604052508101906107ae91906117c1565b10156107f55760405162461bcd60e51b81526020600482015260166024820152756573524144542062616c616e636520746f6f206c6f7760501b6044820152606401610532565b336000908152600860205260409020548190819061081390826111fe565b336000818152600860205260409020918255426001830155600954600290920191909155610841908461105e565b505061057d6001600655565b61085561120a565b6107436000611264565b6001600160a01b0381166000908152600860205260408120600101548190610888904290610e34565b336000908152600860205260408120600201549192509082106108c457506001600160a01b0383166000908152600860205260409020546108f5565b6001600160a01b0384166000908152600860205260409020600281015490546108f2919061064e90856111e6565b90505b9392505050565b6060600480546103da9061173c565b600033816109198286610ab9565b9050838110156109795760405162461bcd60e51b815260206004820152602560248201527f45524332303a2064656372656173656420616c6c6f77616e63652062656c6f77604482015264207a65726f60d81b6064820152608401610532565b6109868286868403610d0f565b506001949350505050565b60003361046b818585610eba565b6109a761120a565b6001600160a01b03919091166000908152600760205260409020805460ff1916911515919091179055565b6109da61118d565b600a546040516370a0823160e01b815233600482015282916001600160a01b0316906370a0823190602401602060405180830381865afa158015610a22573d6000803e3d6000fd5b505050506040513d601f19601f82011682018060405250810190610a4691906117c1565b1015610a8b5760405162461bcd60e51b8152602060048201526014602482015273524144542062616c616e636520746f6f206c6f7760601b6044820152606401610532565b80610a9633826112b6565b600a54610aae906001600160a01b0316333085611375565b5061057d6001600655565b6001600160a01b03918216600090815260016020908152604080832093909416825291909152205490565b6000610aee61118d565b33600090815260086020526040902054610b345760405162461bcd60e51b81526020600482015260076024820152661b9bc81b5a5b9d60ca1b6044820152606401610532565b3360009081526007602052604081205460ff161515600103610b745750336000908152600860205260408120805460028201839055918155426001909101555b33600090815260086020526040812060010154610b92904290610e34565b3360009081526008602052604081206002015491925003610bb857600092505050610c8c565b33600090815260086020526040902060028181015491549091610bdf9161064e90856111e6565b610be991906117da565b336000818152600860205260408082206002810183905591825542600190920191909155600a54905163a9059cbb60e01b81526004810192909252602482018390529193506001600160a01b039091169063a9059cbb906044016020604051808303816000875af1158015610c62573d6000803e3d6000fd5b505050506040513d601f19601f82011682018060405250810190610c8691906117a4565b50909150505b610c966001600655565b90565b610ca161120a565b6001600160a01b038116610d065760405162461bcd60e51b815260206004820152602660248201527f4f776e61626c653a206e6577206f776e657220697320746865207a65726f206160448201526564647265737360d01b6064820152608401610532565b61057d81611264565b6001600160a01b038316610d715760405162461bcd60e51b8152602060048201526024808201527f45524332303a20617070726f76652066726f6d20746865207a65726f206164646044820152637265737360e01b6064820152608401610532565b6001600160a01b038216610dd25760405162461bcd60e51b815260206004820152602260248201527f45524332303a20617070726f766520746f20746865207a65726f206164647265604482015261737360f01b6064820152608401610532565b6001600160a01b0383811660008181526001602090815260408083209487168084529482529182902085905590518481527f8c5be1e5ebec7d5bd14f71427d1e84f3dd0314c0f7b2291e5b200ac8c7c3b92591015b60405180910390a3505050565b60006108f582846117fc565b6000610e4c8484610ab9565b90506000198114610eb45781811015610ea75760405162461bcd60e51b815260206004820152601d60248201527f45524332303a20696e73756666696369656e7420616c6c6f77616e63650000006044820152606401610532565b610eb48484848403610d0f565b50505050565b6001600160a01b038316610f1e5760405162461bcd60e51b815260206004820152602560248201527f45524332303a207472616e736665722066726f6d20746865207a65726f206164604482015264647265737360d81b6064820152608401610532565b6001600160a01b038216610f805760405162461bcd60e51b815260206004820152602360248201527f45524332303a207472616e7366657220746f20746865207a65726f206164647260448201526265737360e81b6064820152608401610532565b6001600160a01b03831660009081526020819052604090205481811015610ff85760405162461bcd60e51b815260206004820152602660248201527f45524332303a207472616e7366657220616d6f756e7420657863656564732062604482015265616c616e636560d01b6064820152608401610532565b6001600160a01b03848116600081815260208181526040808320878703905593871680835291849020805487019055925185815290927fddf252ad1be2c89b69c2b068fc378daa952ba7f163c4a11628f55a4df523b3ef910160405180910390a3610eb4565b6001600160a01b0382166110be5760405162461bcd60e51b815260206004820152602160248201527f45524332303a206275726e2066726f6d20746865207a65726f206164647265736044820152607360f81b6064820152608401610532565b6001600160a01b038216600090815260208190526040902054818110156111325760405162461bcd60e51b815260206004820152602260248201527f45524332303a206275726e20616d6f756e7420657863656564732062616c616e604482015261636560f01b6064820152608401610532565b6001600160a01b0383166000818152602081815260408083208686039055600280548790039055518581529192917fddf252ad1be2c89b69c2b068fc378daa952ba7f163c4a11628f55a4df523b3ef9101610e27565b505050565b6002600654036111df5760405162461bcd60e51b815260206004820152601f60248201527f5265656e7472616e637947756172643a207265656e7472616e742063616c6c006044820152606401610532565b6002600655565b60006108f58284611813565b60006108f582846117da565b60006108f5828461178c565b6005546001600160a01b031633146107435760405162461bcd60e51b815260206004820181905260248201527f4f776e61626c653a2063616c6c6572206973206e6f7420746865206f776e65726044820152606401610532565b600580546001600160a01b038381166001600160a01b0319831681179093556040519116919082907f8be0079c531659141344cd1fd0a4f28419497f9722a3daafe3b4186f6b6457e090600090a35050565b6001600160a01b03821661130c5760405162461bcd60e51b815260206004820152601f60248201527f45524332303a206d696e7420746f20746865207a65726f2061646472657373006044820152606401610532565b806002600082825461131e919061178c565b90915550506001600160a01b038216600081815260208181526040808320805486019055518481527fddf252ad1be2c89b69c2b068fc378daa952ba7f163c4a11628f55a4df523b3ef910160405180910390a35050565b604080516001600160a01b038581166024830152848116604483015260648083018590528351808403909101815260849092018352602080830180516001600160e01b03166323b872dd60e01b17905283518085019094528084527f5361666545524332303a206c6f772d6c6576656c2063616c6c206661696c656490840152610eb49287929160009161140d91851690849061148a565b805190915015611188578080602001905181019061142b91906117a4565b6111885760405162461bcd60e51b815260206004820152602a60248201527f5361666545524332303a204552433230206f7065726174696f6e20646964206e6044820152691bdd081cdd58d8d9595960b21b6064820152608401610532565b60606108f2848460008585600080866001600160a01b031685876040516114b19190611832565b60006040518083038185875af1925050503d80600081146114ee576040519150601f19603f3d011682016040523d82523d6000602084013e6114f3565b606091505b509150915061150487838387611511565b925050505b949350505050565b60608315611580578251600003611579576001600160a01b0385163b6115795760405162461bcd60e51b815260206004820152601d60248201527f416464726573733a2063616c6c20746f206e6f6e2d636f6e74726163740000006044820152606401610532565b5081611509565b61150983838151156115955781518083602001fd5b8060405162461bcd60e51b815260040161053291906115db565b60005b838110156115ca5781810151838201526020016115b2565b83811115610eb45750506000910152565b60208152600082518060208401526115fa8160408501602087016115af565b601f01601f19169190910160400192915050565b80356001600160a01b038116811461162557600080fd5b919050565b6000806040838503121561163d57600080fd5b6116468361160e565b946020939093013593505050565b60006020828403121561166657600080fd5b6108f58261160e565b60008060006060848603121561168457600080fd5b61168d8461160e565b925061169b6020850161160e565b9150604084013590509250925092565b6000602082840312156116bd57600080fd5b5035919050565b801515811461057d57600080fd5b600080604083850312156116e557600080fd5b6116ee8361160e565b915060208301356116fe816116c4565b809150509250929050565b6000806040838503121561171c57600080fd5b6117258361160e565b91506117336020840161160e565b90509250929050565b600181811c9082168061175057607f821691505b60208210810361177057634e487b7160e01b600052602260045260246000fd5b50919050565b634e487b7160e01b600052601160045260246000fd5b6000821982111561179f5761179f611776565b500190565b6000602082840312156117b657600080fd5b81516108f5816116c4565b6000602082840312156117d357600080fd5b5051919050565b6000826117f757634e487b7160e01b600052601260045260246000fd5b500490565b60008282101561180e5761180e611776565b500390565b600081600019048311821515161561182d5761182d611776565b500290565b600082516118448184602087016115af565b919091019291505056fea2646970667358221220798cec67ec354c9b31663262f2deccb141c1d35b48690cd8d63088aae2cb4dfa64736f6c634300080f0033",
        "nonce": "0x53"
      },
      "additionalContracts": [],
      "isFixedGasLimit": false
    },
    {
      "hash": "0x9aba39bafe502adf5d57eefd7351d14e6810eecf2c568f52eb01728b4cfff93d",
      "transactionType": "CALL",
      "contractName": "esRADT.0.8.15",
      "contractAddress": "0xDee7ED1e10F1956E23EE2df2908101B39bB6808f",
      "function": "whitelistAddress(address,bool)",
      "arguments": [
        "0x94b23c2233BC7c9Fe75B22950335d7F792b00E8e",
        "true"
      ],
      "transaction": {
        "type": "0x00",
        "from": "0xa50fc8fc0b7845b07dcd00ef6bde46e5160e3835",
        "to": "0xdee7ed1e10f1956e23ee2df2908101b39bb6808f",
        "gas": "0x1a3c19",
        "value": "0x0",
        "data": "0xb9a45aac00000000000000000000000094b23c2233bc7c9fe75b22950335d7f792b00e8e0000000000000000000000000000000000000000000000000000000000000001",
        "nonce": "0x54"
      },
      "additionalContracts": [],
      "isFixedGasLimit": false
    },
    {
      "hash": "0x8e9e0151804199b8ab845718acbe0e3f85f11bf327319179c99fd9b08670c164",
      "transactionType": "CALL",
      "contractName": "esRADT.0.8.15",
      "contractAddress": "0xDee7ED1e10F1956E23EE2df2908101B39bB6808f",
      "function": "whitelistAddress(address,bool)",
      "arguments": [
        "0xa50FC8Fc0b7845b07DCD00ef6bdE46E5160E3835",
        "true"
      ],
      "transaction": {
        "type": "0x00",
        "from": "0xa50fc8fc0b7845b07dcd00ef6bde46e5160e3835",
        "to": "0xdee7ed1e10f1956e23ee2df2908101b39bb6808f",
        "gas": "0x1a3c09",
        "value": "0x0",
        "data": "0xb9a45aac000000000000000000000000a50fc8fc0b7845b07dcd00ef6bde46e5160e38350000000000000000000000000000000000000000000000000000000000000001",
        "nonce": "0x55"
      },
      "additionalContracts": [],
      "isFixedGasLimit": false
    },
    {
      "hash": "0x070dd25a45d5d569f3193fadd6dcef131237c88052c2164cca4e13ed464e6aa1",
      "transactionType": "CALL",
      "contractName": "/Users/william/dev/vaults-research/radiate/dlp-vaults/src/policies/CHEST.sol:Chest",
      "contractAddress": "0x53827a9B172Ee56cB5efa504384F18fCD84573e0",
      "function": "withdraw(address,uint256)",
      "arguments": [
        "0x7CA0B5Ca80291B1fEB2d45702FFE56a7A53E7a97",
        "20000000000000000000000"
      ],
      "transaction": {
        "type": "0x00",
        "from": "0xa50fc8fc0b7845b07dcd00ef6bde46e5160e3835",
        "to": "0x53827a9b172ee56cb5efa504384f18fcd84573e0",
        "gas": "0x1a3c86",
        "value": "0x0",
        "data": "0xf3fef3a30000000000000000000000007ca0b5ca80291b1feb2d45702ffe56a7a53e7a9700000000000000000000000000000000000000000000043c33c1937564800000",
        "nonce": "0x56"
      },
      "additionalContracts": [],
      "isFixedGasLimit": false
    },
    {
      "hash": "0xd6ad4cc4b6f7d87186aaa9ef591a9036ea0aad4233dd45fd107e5b98c0083e6d",
      "transactionType": "CALL",
      "contractName": null,
      "contractAddress": "0x7CA0B5Ca80291B1fEB2d45702FFE56a7A53E7a97",
      "function": "transfer(address,uint256):(bool)",
      "arguments": [
        "0x94b23c2233BC7c9Fe75B22950335d7F792b00E8e",
        "20000000000000000000000"
      ],
      "transaction": {
        "type": "0x00",
        "from": "0xa50fc8fc0b7845b07dcd00ef6bde46e5160e3835",
        "to": "0x7ca0b5ca80291b1feb2d45702ffe56a7a53e7a97",
        "gas": "0x9fbe",
        "value": "0x0",
        "data": "0xa9059cbb00000000000000000000000094b23c2233bc7c9fe75b22950335d7f792b00e8e00000000000000000000000000000000000000000000043c33c1937564800000",
        "nonce": "0x57"
      },
      "additionalContracts": [],
      "isFixedGasLimit": false
    }
  ],
  "receipts": [
    {
      "transactionHash": "0xbd487e0d06b1ade2a77593c82d921bd9bd1d220859a617f9fd4db04ef018c3b7",
      "transactionIndex": "0x1",
      "blockHash": "0xa37e3accccf76f260ba875e2b0cb995b123aec77b69d40a80afefd03d5a329c0",
      "blockNumber": "0x69b8909",
      "from": "0xa50FC8Fc0b7845b07DCD00ef6bdE46E5160E3835",
      "to": null,
      "cumulativeGasUsed": "0x8272af",
      "gasUsed": "0x8272af",
      "contractAddress": "0x53827a9B172Ee56cB5efa504384F18fCD84573e0",
      "logs": [],
      "status": "0x1",
      "logsBloom": "0x00000000000000000000000000000000000000000000000000000000000000000000000000000000000000000000000000000000000000000000000000000000000000000000000000000000000000000000000000000000000000000000000000000000000000000000000000000000000000000000000000000000000000000000000000000000000000000000000000000000000000000000000000000000000000000000000000000000000000000000000000000000000000000000000000000000000000000000000000000000000000000000000000000000000000000000000000000000000000000000000000000000000000000000000000000000",
      "type": "0x0",
      "effectiveGasPrice": "0x5f5e100"
    },
    {
      "transactionHash": "0x888804ef3c8ba6026e50fac7d5f28106dbb65bd131f9dff99654153e9de01b42",
      "transactionIndex": "0x1",
      "blockHash": "0x021607ba49b94d6a9f2bd67de00a6acc80be6bcc71517b310b1e159ea03e1b9c",
      "blockNumber": "0x69b8928",
      "from": "0xa50FC8Fc0b7845b07DCD00ef6bdE46E5160E3835",
      "to": "0x6d37F6eeDc9ED384E56C67827001901F9Af2EA5F",
      "cumulativeGasUsed": "0x131ac6",
      "gasUsed": "0x131ac6",
      "contractAddress": null,
      "logs": [
        {
          "address": "0x6d37F6eeDc9ED384E56C67827001901F9Af2EA5F",
          "topics": [
            "0xf3cdd20c5574ce87c347ea71e37b8fa7a095894be4b7f2bb1533e8d2342965f1",
            "0x5452535259000000000000000000000000000000000000000000000000000000",
            "0x00000000000000000000000053827a9b172ee56cb5efa504384f18fcd84573e0"
          ],
          "data": "0xf3fef3a3000000000000000000000000000000000000000000000000000000000000000000000000000000000000000000000000000000000000000000000001",
          "blockHash": "0x021607ba49b94d6a9f2bd67de00a6acc80be6bcc71517b310b1e159ea03e1b9c",
          "blockNumber": "0x69b8928",
          "transactionHash": "0x888804ef3c8ba6026e50fac7d5f28106dbb65bd131f9dff99654153e9de01b42",
          "transactionIndex": "0x1",
          "logIndex": "0x0",
          "removed": false
        },
        {
          "address": "0x6d37F6eeDc9ED384E56C67827001901F9Af2EA5F",
          "topics": [
            "0x6560dd86d70bf03c0005b3533cc115fa8b8a12b4ee11c7342ae7b32d82267c90",
            "0x0000000000000000000000000000000000000000000000000000000000000002",
            "0x00000000000000000000000053827a9b172ee56cb5efa504384f18fcd84573e0"
          ],
          "data": "0x",
          "blockHash": "0x021607ba49b94d6a9f2bd67de00a6acc80be6bcc71517b310b1e159ea03e1b9c",
          "blockNumber": "0x69b8928",
          "transactionHash": "0x888804ef3c8ba6026e50fac7d5f28106dbb65bd131f9dff99654153e9de01b42",
          "transactionIndex": "0x1",
          "logIndex": "0x1",
          "removed": false
        }
      ],
      "status": "0x1",
      "logsBloom": "0x84000000000008000000000000000000000000000000000000000000000000000000000000000000000000000000000000000004000000000000000000000000000000000000000000000000000000000020000000001000000000000000000000000000020000000000000000000000000000000040000000000000000000000000000000000000000000000000000004200000000000000000000000000000000000000000000000000900000000000000000000000000000000000000000000000000000000000000000000000000000000000000000000000000008000040000000000001000000000000000000000000000008000000000000010008000",
      "type": "0x0",
      "effectiveGasPrice": "0x5f5e100"
    },
    {
      "transactionHash": "0x19a14e46208434de5cb19d6c4ca1bffb7e37378b7d44a21a9f7a8db40a810612",
      "transactionIndex": "0x2",
      "blockHash": "0x9bbe3c96e5c4680311240b59c6978480480b1c2402e5ebd81230e8446903a461",
      "blockNumber": "0x69b8945",
      "from": "0xa50FC8Fc0b7845b07DCD00ef6bdE46E5160E3835",
      "to": null,
      "cumulativeGasUsed": "0x17f3dea",
      "gasUsed": "0x16eec1d",
      "contractAddress": "0xDee7ED1e10F1956E23EE2df2908101B39bB6808f",
      "logs": [
        {
          "address": "0xDee7ED1e10F1956E23EE2df2908101B39bB6808f",
          "topics": [
            "0x8be0079c531659141344cd1fd0a4f28419497f9722a3daafe3b4186f6b6457e0",
            "0x0000000000000000000000000000000000000000000000000000000000000000",
            "0x000000000000000000000000a50fc8fc0b7845b07dcd00ef6bde46e5160e3835"
          ],
          "data": "0x",
          "blockHash": "0x9bbe3c96e5c4680311240b59c6978480480b1c2402e5ebd81230e8446903a461",
          "blockNumber": "0x69b8945",
          "transactionHash": "0x19a14e46208434de5cb19d6c4ca1bffb7e37378b7d44a21a9f7a8db40a810612",
          "transactionIndex": "0x2",
          "logIndex": "0x1",
          "removed": false
        }
      ],
      "status": "0x1",
      "logsBloom": "0x00000000000000000000000000000000000000000000000000800000000000000000000000000000000000000000000000000000000000000000000008000000000000000000000000000000000000000001000004000000000000000000000000000000020000000000000000000800000000000000040000020000000000400000000000000000000000000000000000000000000000000000000000000000000000010000000000000000000010000000000000000000000000000000000000000000000000000000000000000000000000000000000000000000000020000000000000000000000000000000000000000000000000000000000000000000",
      "type": "0x0",
      "effectiveGasPrice": "0x5f5e100"
    },
    {
      "transactionHash": "0x9aba39bafe502adf5d57eefd7351d14e6810eecf2c568f52eb01728b4cfff93d",
      "transactionIndex": "0x3",
      "blockHash": "0x082ca2f06053b13c4084ccbe7f215d44af1dad7c7d01a7ed6ab8cf44181f7e40",
      "blockNumber": "0x69b8960",
      "from": "0xa50FC8Fc0b7845b07DCD00ef6bdE46E5160E3835",
      "to": "0xDee7ED1e10F1956E23EE2df2908101B39bB6808f",
      "cumulativeGasUsed": "0x294010",
      "gasUsed": "0xfdb53",
      "contractAddress": null,
      "logs": [],
      "status": "0x1",
      "logsBloom": "0x00000000000000000000000000000000000000000000000000000000000000000000000000000000000000000000000000000000000000000000000000000000000000000000000000000000000000000000000000000000000000000000000000000000000000000000000000000000000000000000000000000000000000000000000000000000000000000000000000000000000000000000000000000000000000000000000000000000000000000000000000000000000000000000000000000000000000000000000000000000000000000000000000000000000000000000000000000000000000000000000000000000000000000000000000000000",
      "type": "0x0",
      "effectiveGasPrice": "0x5f5e100"
    },
    {
      "transactionHash": "0x8e9e0151804199b8ab845718acbe0e3f85f11bf327319179c99fd9b08670c164",
      "transactionIndex": "0x3",
      "blockHash": "0x55357d368accef074885698de4c82f564b165b9f56e2504c4aaf6763d8041a9a",
      "blockNumber": "0x69b897d",
      "from": "0xa50FC8Fc0b7845b07DCD00ef6bdE46E5160E3835",
      "to": "0xDee7ED1e10F1956E23EE2df2908101B39bB6808f",
      "cumulativeGasUsed": "0x548066",
      "gasUsed": "0xfdb47",
      "contractAddress": null,
      "logs": [],
      "status": "0x1",
      "logsBloom": "0x00000000000000000000000000000000000000000000000000000000000000000000000000000000000000000000000000000000000000000000000000000000000000000000000000000000000000000000000000000000000000000000000000000000000000000000000000000000000000000000000000000000000000000000000000000000000000000000000000000000000000000000000000000000000000000000000000000000000000000000000000000000000000000000000000000000000000000000000000000000000000000000000000000000000000000000000000000000000000000000000000000000000000000000000000000000",
      "type": "0x0",
      "effectiveGasPrice": "0x5f5e100"
    },
    {
      "transactionHash": "0x070dd25a45d5d569f3193fadd6dcef131237c88052c2164cca4e13ed464e6aa1",
      "transactionIndex": "0x4",
      "blockHash": "0xffe7b2ceffc24021fc96dec4ad81a160d9ca9d72e0a1c234ba8a4c2cf59558b5",
      "blockNumber": "0x69b899b",
      "from": "0xa50FC8Fc0b7845b07DCD00ef6bdE46E5160E3835",
      "to": "0x53827a9B172Ee56cB5efa504384F18fCD84573e0",
      "cumulativeGasUsed": "0xbfce56",
      "gasUsed": "0x106444",
      "contractAddress": null,
      "logs": [
        {
          "address": "0x7CA0B5Ca80291B1fEB2d45702FFE56a7A53E7a97",
          "topics": [
            "0xddf252ad1be2c89b69c2b068fc378daa952ba7f163c4a11628f55a4df523b3ef",
            "0x000000000000000000000000e270d584c68f905ee04085f8acc1090cc3917820",
            "0x00000000000000000000000053827a9b172ee56cb5efa504384f18fcd84573e0"
          ],
          "data": "0x00000000000000000000000000000000000000000000043c33c1937564800000",
          "blockHash": "0xffe7b2ceffc24021fc96dec4ad81a160d9ca9d72e0a1c234ba8a4c2cf59558b5",
          "blockNumber": "0x69b899b",
          "transactionHash": "0x070dd25a45d5d569f3193fadd6dcef131237c88052c2164cca4e13ed464e6aa1",
          "transactionIndex": "0x4",
          "logIndex": "0xc",
          "removed": false
        },
        {
          "address": "0x7CA0B5Ca80291B1fEB2d45702FFE56a7A53E7a97",
          "topics": [
            "0xddf252ad1be2c89b69c2b068fc378daa952ba7f163c4a11628f55a4df523b3ef",
            "0x00000000000000000000000053827a9b172ee56cb5efa504384f18fcd84573e0",
            "0x000000000000000000000000a50fc8fc0b7845b07dcd00ef6bde46e5160e3835"
          ],
          "data": "0x00000000000000000000000000000000000000000000043c33c1937564800000",
          "blockHash": "0xffe7b2ceffc24021fc96dec4ad81a160d9ca9d72e0a1c234ba8a4c2cf59558b5",
          "blockNumber": "0x69b899b",
          "transactionHash": "0x070dd25a45d5d569f3193fadd6dcef131237c88052c2164cca4e13ed464e6aa1",
          "transactionIndex": "0x4",
          "logIndex": "0xd",
          "removed": false
        }
      ],
      "status": "0x1",
      "logsBloom": "0x00000000000008000000000000000000000000000000000000000000000000000000000000000000000000000000000000000000800000000000000008000000000000000000000000000008000000008000000000000000000001000000000000000000020000000000000000000000080000000000040000000010000000000000000000000000000000000000000000000000000000000000000000000000000000010000000000000000000000000000000000000000800000000000000000000002000000000000000000000000000000000000000000000000000000000000000000000000000008000000000000000000000000000000000000008000",
      "type": "0x0",
      "effectiveGasPrice": "0x5f5e100"
    },
    {
      "transactionHash": "0xd6ad4cc4b6f7d87186aaa9ef591a9036ea0aad4233dd45fd107e5b98c0083e6d",
      "transactionIndex": "0x1",
      "blockHash": "0xac7821f52f3143117b1c472daed0c654e954c299899ecf7a2e5ec1dc5784ead8",
      "blockNumber": "0x69b89b9",
      "from": "0xa50FC8Fc0b7845b07DCD00ef6bdE46E5160E3835",
      "to": "0x7CA0B5Ca80291B1fEB2d45702FFE56a7A53E7a97",
      "cumulativeGasUsed": "0xf998a",
      "gasUsed": "0xf998a",
      "contractAddress": null,
      "logs": [
        {
          "address": "0x7CA0B5Ca80291B1fEB2d45702FFE56a7A53E7a97",
          "topics": [
            "0xddf252ad1be2c89b69c2b068fc378daa952ba7f163c4a11628f55a4df523b3ef",
            "0x000000000000000000000000a50fc8fc0b7845b07dcd00ef6bde46e5160e3835",
            "0x00000000000000000000000094b23c2233bc7c9fe75b22950335d7f792b00e8e"
          ],
          "data": "0x00000000000000000000000000000000000000000000043c33c1937564800000",
          "blockHash": "0xac7821f52f3143117b1c472daed0c654e954c299899ecf7a2e5ec1dc5784ead8",
          "blockNumber": "0x69b89b9",
          "transactionHash": "0xd6ad4cc4b6f7d87186aaa9ef591a9036ea0aad4233dd45fd107e5b98c0083e6d",
          "transactionIndex": "0x1",
          "logIndex": "0x0",
          "removed": false
        }
      ],
      "status": "0x1",
      "logsBloom": "0x00000000000000000000000000000000000000000000000000000000000000000000000000000000000000000000000000000000800000000000000008000000000000000000000000000008000000000000000000000000000001000000020000000000000000000000000000000000000000000000040000000010000000000000000000000000000000000000000000000000000000000000000000000000000000010000000000000000000000000000000000000000000000000000000000000002000000000000000000000020000000000000000000000000000000000000000000000000000008000000000000000000000000004000000000000000",
      "type": "0x0",
      "effectiveGasPrice": "0x5f5e100"
    }
  ],
  "libraries": [],
  "pending": [],
  "returns": {},
  "timestamp": 1689269796,
  "chain": 42161,
  "multi": false,
  "commit": "e76a2a3"
}